:100000000C9458000C9480000C9480000C94800098
:100010000C9480000C9480000C9480000C94800060
:100020000C9480000C9480000C9480000C94800050
:100030000C9480000C9480000C9480000C94800040
:100040000C941A040C9480000C9480000C94800092
:100050000C9480000C9480000C9480000C94800020
:100060000C9464040C94800000000000250028001B
:100070002B00040404040404040402020202020229
:10008000030303030303010204081020408001025C
:1000900004081020010204081020000000080002DB
:1000A00001000003040700000000000000008305B9
:1000B00011241FBECFEFD8E0DEBFCDBF11E0A0E01E
:1000C000B1E0EAEAFFE002C005900D92A831B10765
:1000D000D9F721E0A8E1B1E001C01D92A73FB20726
:1000E000E1F710E0C8E5D0E004C02197FE010E94CE
:1000F000A806C735D107C9F70E94A0050C94D307FD
:100100000C9400000895089590E0FC01E656FF4F1E
:100110002491FC01EA57FF4F3491FC01EE58FF4F48
:10012000E491EE23C9F0222339F0233001F1A8F441
:10013000213019F1223029F1F0E0EE0FFF1FE859CC
:10014000FF4FA591B4918FB7F894EC91611126C03F
:1001500030953E233C938FBF08952730A9F0283077
:10016000C9F0243049F7809180008F7D03C08091D1
:1001700080008F7780938000DFCF84B58F7784BD38
:10018000DBCF84B58F7DFBCF8091B0008F778093DC
:10019000B000D2CF8091B0008F7DF9CF3E2BDACF67
:1001A0003FB7F8948091810190918201A0918301E1
:1001B000B091840126B5A89B05C02F3F19F0019688
:1001C000A11DB11D3FBFBA2FA92F982F8827BC01B1
:1001D000CD01620F711D811D911D42E0660F771FD9
:1001E000881F991F4A95D1F708958F929F92AF92D9
:1001F000BF92CF92DF92EF92FF924B015C010E947F
:10020000D0006B017C010E94D0006C197D098E0921
:100210009F09683E734081059105A8F321E0821A89
:100220009108A108B10888EEC80E83E0D81EE11C31
:10023000F11C81149104A104B10429F7FF90EF90FF
:10024000DF90CF90BF90AF909F908F9008952091B6
:100250005901260F3327331F21323105ECF4209149
:10026000B101FC0190E080E0243069F082E0089563
:10027000A09159012191AC01475C5E4FA40FB52FAD
:10028000B11D2C930196861798F380915901680F40
:100290006093590180E0089581E008951092B101C2
:1002A00081E08093B00110928B0161E082E10E94B5
:1002B000840061E083E10E948400E9EBF0E080814A
:1002C0008E7F808380818D7F808388E48093B800D7
:1002D00085E48093BC000895CF93DF9391E09093E1
:1002E00038018823B9F0C091B800D091BA0080914C
:1002F000BC008A7B8093BC0060E082E10E948400A5
:1003000060E083E10E9484000E944E01D093BA0015
:10031000C093B800DF91CF9108958F929F92AF92D2
:10032000BF92CF92DF92EF92FF920F931F93CF93E2
:10033000DF93D091DA01D13208F0D7C0182FC091E5
:10034000D9010E94D0006B017C018091B101811123
:100350006BC082E08093B1011093B0018FEF809366
:10036000AF011092AE01D093AD01A9EBB1E0EDE881
:10037000F1E080E0D81391C010928C0180918C0143
:10038000CC0FC82BC0938C0180918B01813009F078
:1003900088C010928B010E94D0006B017C0180917B
:1003A0008C018093BB008091B3019091B401A09126
:1003B000B501B091B601892B8A2B8B2BA1F00E943D
:1003C000D0000091B3011091B4012091B50130919A
:1003D000B6016C197D098E099F09061717072807B2
:1003E000390708F442C08091BC0083FDD8CF85EC6A
:1003F0008093BC000E94D0006B017C018091B10110
:10040000823009F450C08091AF018F3F09F46FC072
:100410008091AF01803209F46CC08091AF018033CC
:1004200009F469C084E026C08091B3019091B401C1
:10043000A091B501B091B601892B8A2B8B2B09F4C1
:1004400084CF0E94D0008090B3019090B401A0901E
:10045000B501B090B6016C197D098E099F09861609
:100460009706A806B90608F070CF8091B2010E94E5
:100470006C0185E01092B8011092DA011092B70178
:10048000DF91CF911F910F91FF90EF90DF90CF9070
:10049000BF90AF909F908F9008959D9191938F5FA3
:1004A00069CF85EEA5CF8091B3019091B401A09161
:1004B000B501B091B601892B8A2B8B2B09F49ECF05
:1004C0000E94D0000091B3011091B4012091B501B8
:1004D0003091B6016C197D098E099F09061717071F
:1004E0002807390708F08ACFC0CF81E0C3CF80E06A
:1004F000C1CF82E0BFCF83E0BDCFDC0111968D91EB
:100500009C91DC01ED91FC910280F381E02D41E0B2
:1005100050E00995019729F481E00E948D0191E056
:10052000811190E0892F08950895E0918A018091CA
:100530008901E81730F4F0E0E85EFE4F808190E03A
:1005400008958FEF9FEF089590918A01809189011E
:100550002FEF3FEF981748F4E92FF0E0E85EFE4FE9
:10056000208130E09F5F90938A01C90108958091B6
:10057000890190918A01891B990B0895CF92DF928E
:10058000EF92FF920F931F93CF93DF937C01CB01E8
:100590008A012091B701222389F0EB016B01C40E7F
:1005A000D51ECC15DD0569F06991D701ED91FC915F
:1005B0000190F081E02DC7010995F3CF642F0E94CF
:1005C0002701C801DF91CF911F910F91FF90EF900C
:1005D000DF90CF900895CF93DF931F92CDB7DEB712
:1005E00069832091B7012223F9F02091DA012032AA
:1005F00058F021E030E0FC013383228390E080E07A
:100600000F90DF91CF9108958091B801E82FF0E02D
:10061000E754FE4F998190838F5F8093B801809358
:10062000DA0181E090E0ECCF61E0CE0101960E941A
:100630002701F7CF90E080E00895CF93DF93EC019E
:100640008B818823A1F0888191E09093B7018093FA
:10065000D9011092B8011092DA0181E00E948D0157
:1006600091E0811190E0892FDF91CF910895109250
:100670008A01109289011092B8011092DA010E9449
:100680004E0182E890E0909388018093870183E88F
:1006900090E0909386018093850181E08B83CE0169
:1006A0000E941D03982F8111CECFDDCFFF920F93B3
:1006B0001F93CF93DF938C01F62EFC0182819381EF
:1006C0000E944A0786E090E00E94AE06EC01F882A4
:1006D0008BED91E09A8389831B8280E290E09D8379
:1006E0008C83F801D383C28310928A01109289010E
:1006F0001092B8011092DA010E944E0182E890E057
:10070000909388018093870183E890E0909386011D
:100710008093850181E08B83CE01DF91CF911F9182
:100720000F91FF900C941D03FC0181E090E001C04B
:10073000880F6A95EAF78095918189238183828168
:100740009381DC0114962D913C911597232B79F020
:100750002C9131E03093B7012093D9011092B80168
:100760001092DA01BF016F5F7F4F0C947D0280E031
:100770000895FC01818121E030E001C0220F6A95DB
:10078000EAF74423D1F0282B218382819381DC0175
:1007900014962D913C911597232B91F02C9131E0DB
:1007A0003093B7012093D9011092B8011092DA0169
:1007B000BF016F5F7F4F0C947D0220952823E4CF0B
:1007C00080E0089585ED8093BC008091B301909105
:1007D000B401A091B501B091B6010796A11DB11D5C
:1007E00023E0B695A795979587952A95D1F72091FF
:1007F000BC0024FD03C01092B10108954091B301E3
:100800005091B4016091B5017091B601452B462B12
:10081000472B69F30097A105B10541F02AE22A951B
:10082000F1F700C00197A109B109E1CF8091B201B0
:100830000C946C011F920F920FB60F9211242F93FC
:100840003F938F939F93AF93BF9380917D0190913E
:100850007E01A0917F01B091800130917C0123E065
:10086000230F2D3758F50196A11DB11D20937C0152
:1008700080937D0190937E01A0937F01B0938001CE
:100880008091810190918201A0918301B0918401B6
:100890000196A11DB11D8093810190938201A093C7
:1008A0008301B0938401BF91AF919F918F913F914C
:1008B0002F910F900FBE0F901F90189526E8230FD1
:1008C0000296A11DB11DD2CF1F920F920FB60F92AB
:1008D00011242F933F934F935F936F937F938F9345
:1008E0009F93AF93BF93EF93FF938091B900887F5D
:1008F000803609F44AC0F0F5883209F4A7C018F52B
:10090000803109F49BC0B8F4882309F4F9C0883019
:1009100009F494C0FF91EF91BF91AF919F918F9196
:100920007F916F915F914F913F912F910F900FBEEB
:100930000F901F901895883109F488C0803251F7C4
:100940008093AF0114C0803409F49DC040F480331B
:10095000B9F38833F9F68093AF0185ECB0C08035E8
:1009600009F485C0883509F496C0883499F60E9448
:10097000E203D0CF883909F48CC038F5883729F0E4
:1009800050F4883611F0803729F683E08093B10166
:1009900010927B0157C0883809F47BC0803919F068
:1009A000803809F0B7CF80917B01803208F071C0A8
:1009B000E0917B0181E08E0F80937B018091BB00F1
:1009C000F0E0E55AFE4F80833DC0803B39F0E0F413
:1009D000803A09F479C0883A09F09CCF84E080938A
:1009E000B10110925A0110925901E0918701F091E2
:1009F000880109958091590181110FC081E0809390
:100A000059011092390109C0803C09F4A6CF883CF5
:100A100009F4A3CF883B09F07DCFE0915A0181E032
:100A20008E0F80935A01F0E0E75CFE4F8081809347
:100A3000BB0090915A018091590129C080918C018D
:100A40008093BB0085EC8093BC0064CF9091AE0195
:100A50008091AD01981758F5E091AE0181E08E0FBD
:100A60008093AE01F0E0E357FE4F8081E9CFE09143
:100A7000AE0181E08E0F8093AE018091BB00F0E06B
:100A8000E357FE4F80839091AE018091AD0198179E
:100A9000C8F285E8D8CFE091AE0181E08E0F809357
:100AA000AE018091BB00F0E0E357FE4F8083809160
:100AB000B00181115CCF81E080938B0184EA809347
:100AC000BC001092B10126CF85EC8093BC0010923F
:100AD000B10180917B01803230F4E0917B01F0E044
:100AE000E55AFE4F108260917B0170E0E091850134
:100AF000F09186018BE591E0099510927B010ACF78
:100B00001092AF0134CFEBEDF1E01382128288EE48
:100B100093E0A0E0B0E084839583A683B7838AE066
:100B200091E091838083EFEEF1E010821182EBEE91
:100B3000F1E010821182E7EEF1E010821182089557
:100B4000789484B5826084BD84B5816084BD85B5A8
:100B5000826085BD85B5816085BD80916E008160B4
:100B600080936E001092810080918100826080935A
:100B7000810080918100816080938100809180005C
:100B80008160809380008091B10084608093B10087
:100B90008091B00081608093B00080917A00846081
:100BA00080937A0080917A00826080937A008091AD
:100BB0007A00816080937A0080917A0080688093C7
:100BC0007A001092C10060E28FEE91E00E9456031D
:100BD000882349F0C0E06C2F8FEE91E00E949403CF
:100BE000CF5FC830C1F761E28BEE91E00E945603FF
:100BF000882349F0C0E06C2F8BEE91E00E949403B3
:100C0000CF5FC830C1F762E287EE91E00E945603E1
:100C1000882349F0C0E06C2F87EE91E00E94940396
:100C2000CF5FC830C1F760E28FEE91E00E945603BB
:100C3000882309F44BC000E010E060E28FEE91E001
:100C40000E9456038823E1F0C0E041E06C2F8FEE54
:100C500091E00E94B90364E670E080E090E00E94B9
:100C6000F50040E06C2F8FEE91E00E94B90364E63E
:100C700070E080E090E00E94F500CF5FC83029F777
:100C800061E070E080E090E00E94F50061E28BEEB0
:100C900091E00E945603882341F141E060E08BEE31
:100CA00091E00E94B90364E670E080E090E00E9469
:100CB000F50040E060E08BEE91E00E94B90364E64D
:100CC00070E080E090E00E94F500E7CF61E28BEEFB
:100CD00091E00E9456038111AECF62E287EE91E06F
:100CE0000E9456038111A7CFFFCF61E070E080E042
:100CF00090E00E94F50062E287EE91E00E945603C8
:100D00008823C9F041E060E087EE91E00E94B903DA
:100D100064E670E080E090E00E94F50040E060E072
:100D200087EE91E00E94B90364E670E080E090E015
:100D30000E94F500E7CF61E070E080E090E00E9463
:100D4000F5000115110509F478CF0E94000075CF58
:100D5000EE0FFF1F0590F491E02D09940F931F9360
:100D6000CF93DF938230910510F482E090E0E09120
:100D7000F501F091F60130E020E0B0E0A0E030971E
:100D800099F42115310509F44AC0281B390B243088
:100D90003105D8F58A819B816115710589F1FB01C7
:100DA00093838283FE0111C04081518102811381AE
:100DB00048175907E0F04817590799F4109761F060
:100DC00012960C93129713961C933296CF01DF91D3
:100DD000CF911F910F9108950093F5011093F601A3
:100DE000F4CF2115310551F04217530738F0A9010E
:100DF000DB019A01BD01DF01F801C1CFEF01F9CF9D
:100E00009093F6018093F501CDCFFE01E20FF31F21
:100E1000819391932250310939832883D7CF209130
:100E2000F3013091F401232B41F420910201309120
:100E300003013093F4012093F301209100013091DC
:100E400001012115310541F42DB73EB74091040150
:100E500050910501241B350BE091F301F091F40151
:100E6000E217F307A0F42E1B3F0B2817390778F081
:100E7000AC014E5F5F4F2417350748F04E0F5F1FE0
:100E80005093F4014093F301819391939FCFF0E04D
:100E9000E0E09CCFCF93DF930097E9F0FC0132971D
:100EA00013821282A091F501B091F601ED0130E0BC
:100EB00020E01097A1F420813181820F931F2091AF
:100EC000F3013091F4012817390709F061C0F0935C
:100ED000F401E093F301DF91CF910895EA01CE1779
:100EE000DF07E8F54A815B819E0141155105B1F7A5
:100EF000E901FB83EA8349915991C40FD51FEC178F
:100F0000FD0761F4808191810296840F951FE901AC
:100F100099838883828193819B838A83F0E0E0E0D8
:100F200012968D919C9113970097B9F52D913C9154
:100F30001197CD010296820F931F2091F3013091FA
:100F4000F4012817390739F6309751F51092F60158
:100F50001092F501B093F401A093F301BCCFD383B9
:100F6000C28340815181840F951FC817D90761F44E
:100F70004E5F5F4F88819981480F591F518340838D
:100F80008A819B81938382832115310509F0B0CF3B
:100F9000F093F601E093F5019ECFFD01DC01C0CF97
:0A0FA00013821282D7CFF894FFCF1E
:100FAA000000F701800000000000EB02BE021A03F5
:080FBA009402B702A4029502A3
:00000001FF
