:100000000C945C000C946E000C946E000C946E00CA
:100010000C946E000C946E000C946E000C946E00A8
:100020000C946E000C946E000C946E000C946E0098
:100030000C946E000C946E000C946E000C946E0088
:100040000C9473010C946E000C946E000C946E0072
:100050000C946E000C946E000C946E000C946E0068
:100060000C946E000C946E00000000080002010069
:100070000003040700000000000000000000000072
:10008000250028002B0000000000240027002A0083
:10009000040404040404040402020202020203032E
:1000A0000303030301020408102040800102040836
:1000B000102001020408102011241FBECFEFD8E049
:1000C000DEBFCDBF21E0A0E0B1E001C01D92AA30AB
:1000D000B207E1F70E94BD010C946C020C94000081
:1000E00090E0FC01EC55FF4F249180579F4FFC019D
:1000F0008491882399F090E0880F991FFC01EA57BA
:10010000FF4FA591B491FC01E458FF4F8591949164
:100110008FB7F894EC91E22BEC938FBF089590E0A9
:10012000FC01E859FF4F2491FC01EC55FF4F34913D
:10013000FC01E057FF4FE491EE23C9F0222339F090
:10014000233001F1A8F4213019F1223029F1F0E037
:10015000EE0FFF1FE458FF4FA591B4918FB7F894AD
:10016000EC91611126C030953E233C938FBF0895DA
:100170002730A9F02830C9F0243049F78091800059
:100180008F7D03C0809180008F7780938000DFCFC8
:1001900084B58F7784BDDBCF84B58F7DFBCF809115
:1001A000B0008F778093B000D2CF8091B0008F7D68
:1001B000F9CF3E2BDACF3FB7F894809106019091AA
:1001C0000701A0910801B091090126B5A89B05C0BF
:1001D0002F3F19F00196A11DB11D3FBFBA2FA92FC6
:1001E000982F8827BC01CD01620F711D811D911DC3
:1001F00042E0660F771F881F991F4A95D1F708952F
:100200008F929F92AF92BF92CF92DF92EF92FF9226
:100210004B015C010E94DB006B017C010E94DB0052
:100220006C197D098E099F09683E7340810591050F
:10023000A8F321E0821A9108A108B10888EEC80E3F
:1002400083E0D81EE11CF11C81149104A104B104C7
:1002500029F7FF90EF90DF90CF90BF90AF909F90E5
:100260008F9008958EBD00000DB407FEFDCF8EB5B2
:100270000895CF93DF93D82FC62F60E08AE00E94C5
:100280008F0064E670E080E090E00E9400018D2F16
:100290000E9432018C2F0E94320164E670E080E0FF
:1002A00090E00E94000161E08AE00E948F0060E01F
:1002B00088E00E948F006AE070E080E090E00E9499
:1002C00000018D2F0E9432018C2F0E9432016AE0C2
:1002D00070E080E090E00E94000161E088E0DF9142
:1002E000CF910C948F001F920F920FB60F92112492
:1002F0002F933F938F939F93AF93BF93809102016E
:1003000090910301A0910401B09105013091010188
:1003100023E0230F2D3758F50196A11DB11D209321
:1003200001018093020190930301A0930401B09313
:1003300005018091060190910701A0910801B091FB
:1003400009010196A11DB11D80930601909307013B
:10035000A0930801B0930901BF91AF919F918F9134
:100360003F912F910F900FBE0F901F90189526E888
:10037000230F0296A11DB11DD2CF789484B582605F
:1003800084BD84B5816084BD85B5826085BD85B539
:10039000816085BD80916E00816080936E001092B7
:1003A0008100809181008260809381008091810032
:1003B00081608093810080918000816080938000C3
:1003C0008091B10084608093B1008091B000816021
:1003D0008093B00080917A00846080937A0080914D
:1003E0007A00826080937A0080917A0081608093A5
:1003F0007A0080917A00806880937A001092C10020
:100400008AE00E94700088E00E947000CFB7F894E4
:1004100080910001811124C0EAE9F0E08491EEEAC4
:10042000F0E09491E82FF0E0EE0FFF1FEA57FF4F46
:10043000A591B491EC91E92321F461E08AE00E9456
:100440008F008AE00E9470008CB580618CBD8CB5F5
:1004500080648CBD8DE00E9470008BE00E94700073
:10046000809100018F5F80930001CFBF80E0E82E74
:1004700080E0F82ED0E0C0E010E000E0B801CE014E
:100480000E9439016AE070E080E090E00E94000183
:100490000F5F1F4F0F3F110589F764E670E080E0A2
:1004A00090E00E9400010FEF10E0B801CE010E9421
:1004B00039016AE070E080E090E00E9400010150A4
:1004C000110999F72196C630D105B1F6E114F1046E
:0C04D00089F20E940000CECFF894FFCF0C
:00000001FF
